:100000000C942A000C9434000C9434000C943400AA
:100010000C9434000C9434000C9434000C94340090
:100020000C9434000C9434000C9434000C94340080
:100030000C9434000C9434000C9434000C94340070
:100040000C9434000C9434000C9434000C94340060
:100050000C94340011241FBECFE5D8E0DEBFCDBF25
:100060000E9436000C945F000C9400008FE08ABB65
:1000700071E028EC30E062E054E048E07BBB88E8C7
:1000800093E1F9013197F1F70197D9F76BBB88E854
:1000900093E1F9013197F1F70197D9F75BBB88E854
:1000A00093E1F9013197F1F70197D9F74BBB88E854
:1000B00093E1F9013197F1F70197D9F7DFCFF89480
:0200C000FFCF70
:00000001FF
